{
  "contractName": "ZombieFactory",
  "abi": [
    {
      "constant": true,
      "inputs": [
        {
          "name": "",
          "type": "uint256"
        }
      ],
      "name": "zombies",
      "outputs": [
        {
          "name": "name",
          "type": "string"
        },
        {
          "name": "dna",
          "type": "uint256"
        }
      ],
      "payable": false,
      "stateMutability": "view",
      "type": "function"
    },
    {
      "constant": true,
      "inputs": [
        {
          "name": "",
          "type": "uint256"
        }
      ],
      "name": "zombieToOwner",
      "outputs": [
        {
          "name": "",
          "type": "address"
        }
      ],
      "payable": false,
      "stateMutability": "view",
      "type": "function"
    },
    {
      "anonymous": false,
      "inputs": [
        {
          "indexed": false,
          "name": "zombieId",
          "type": "uint256"
        },
        {
          "indexed": false,
          "name": "name",
          "type": "string"
        },
        {
          "indexed": false,
          "name": "dna",
          "type": "uint256"
        }
      ],
      "name": "NewZombie",
      "type": "event"
    },
    {
      "constant": false,
      "inputs": [
        {
          "name": "_name",
          "type": "string"
        }
      ],
      "name": "createRandomZombie",
      "outputs": [],
      "payable": false,
      "stateMutability": "nonpayable",
      "type": "function"
    }
  ],
  "bytecode": "0x60806040526010600055662386f26fc1000060015534801561002057600080fd5b506105b6806100306000396000f3006080604052600436106100565763ffffffff7c01000000000000000000000000000000000000000000000000000000006000350416632052465e811461005b578063528b7b8f146100f25780637bff0a0114610133575b600080fd5b34801561006757600080fd5b5061007360043561018e565b6040518080602001838152602001828103825284818151815260200191508051906020019080838360005b838110156100b657818101518382015260200161009e565b50505050905090810190601f1680156100e35780820380516001836020036101000a031916815260200191505b50935050505060405180910390f35b3480156100fe57600080fd5b5061010a600435610242565b6040805173ffffffffffffffffffffffffffffffffffffffff9092168252519081900360200190f35b34801561013f57600080fd5b506040805160206004803580820135601f810184900484028501840190955284845261018c94369492936024939284019190819084018382808284375094975061026a9650505050505050565b005b600280548290811061019c57fe5b60009182526020918290206002918202018054604080516001831615610100026000190190921693909304601f8101859004850282018501909352828152909350918391908301828280156102325780601f1061020757610100808354040283529160200191610232565b820191906000526020600020905b81548152906001019060200180831161021557829003601f168201915b5050505050908060010154905082565b60036020526000908152604090205473ffffffffffffffffffffffffffffffffffffffff1681565b336000908152600460205260408120541561028457600080fd5b61028d826102a3565b905060648106900361029f8282610384565b5050565b600080826040516020018082805190602001908083835b602083106102d95780518252601f1990920191602091820191016102ba565b6001836020036101000a0380198251168184511680821785525050505050509050019150506040516020818303038152906040526040518082805190602001908083835b6020831061033c5780518252601f19909201916020918201910161031d565b6001836020036101000a03801982511681845116808217855250505050505090500191505060405180910390206001900490506001548181151561037c57fe5b069392505050565b60408051808201909152828152602080820183905260028054600181810180845560008481528651805191979396929593949093027f405787fa12a823e0f2b7631cc41b3ba8828b3321ca811111fa75cd3aa3bb5ace01926103ea9284929101906104ef565b50602091820151600191820155929091036000818152600383526040808220805473ffffffffffffffffffffffffffffffffffffffff19163390811790915582526004845280822080549095019094558351828152938401869052606084840181815288519186019190915287519295507f88f026aacbbecc90c18411df4b1185fd8d9be2470f1962f192bf84a27d0704b7948694899489949293926080850192870191908190849084905b838110156104ae578181015183820152602001610496565b50505050905090810190601f1680156104db5780820380516001836020036101000a031916815260200191505b5094505050505060405180910390a1505050565b828054600181600116156101000203166002900490600052602060002090601f016020900481019282601f1061053057805160ff191683800117855561055d565b8280016001018555821561055d579182015b8281111561055d578251825591602001919060010190610542565b5061056992915061056d565b5090565b61058791905b808211156105695760008155600101610573565b905600a165627a7a72305820f9865aea7c33358d1e36af5337bca6f262d6c88f4ec0a1d8d804394c8cc040110029",
  "source": "pragma solidity ^0.4.24;\r\n\r\n/// @title CryptoZombies Chapter 2\r\n/// @author H4XF13LD MORRIS 💯💯😎💯💯 (documentation by Rex Hygate)\r\n// @Github https://github.com/SecurEth/CryptoZombiesT1/Chapter1\r\n// @SDD \"./doc./System Description Document.md\"\r\n// @ARCH ./doc/Crpto...\r\n\r\ncontract ZombieFactory {\r\n\r\n    event NewZombie(uint zombieId, string name, uint dna);\r\n\r\n    uint dnaDigits = 16;\r\n    uint dnaModulus = 10 ** dnaDigits;\r\n\r\n    struct Zombie {\r\n        string name;\r\n        uint dna;\r\n    }\r\n\r\n    Zombie[] public zombies;\r\n\r\n    mapping (uint => address) public zombieToOwner;\r\n    mapping (address => uint) ownerZombieCount;    \r\n\r\n// req C1_1 Push the Zombie attributes in the zombies struct\r\n// req C1_2 Emit the Zombie id, name and dna\r\n    function _createZombie(string _name, uint _dna) internal {\r\n        uint id = zombies.push(Zombie(_name, _dna)) - 1;\r\n        zombieToOwner[id] = msg.sender;\r\n        ownerZombieCount[msg.sender]++;\r\n        emit NewZombie(id, _name, _dna); // emit added to better compile\r\n    } \r\n// @req C1_3 Generate a pseudo random number from a string which is returned as the dna\r\n// @req C1_4 Throw an error if string length 1 char or less\r\n// @req C1_5 Create id which represents the index of the Zombie in the struct on blockchain\r\n    function _generateRandomDna(string _str) private view returns (uint) {\r\n//        require(byte(_str).length > 1, \"Name too short\");  // New code added for tests\r\n        uint rand = uint(keccak256(abi.encodePacked(_str))); //abi.encoded added to remove compiler warnings \r\n        return rand % dnaModulus;\r\n    }\r\n\r\n// @req C1_6 Make Zombie in struct and emit id, name and dna\r\n    function createRandomZombie(string _name) public {\r\n        require(ownerZombieCount[msg.sender] == 0);\r\n        uint randDna = _generateRandomDna(_name);\r\n        randDna = randDna - randDna % 100;\r\n        _createZombie(_name, randDna);\r\n    }\r\n\r\n}\r\n",
  "sourcePath": "C:\\Users\\Eth Coding\\Documents\\Github\\CryptoZombiesT1\\Chapter 2\\contracts\\zombiefactory.sol",
  "compiler": {
    "name": "solc",
    "version": "0.4.24+commit.e67f0147.Emscripten.clang"
  },
  "schemaVersion": "2.0.1",
  "updatedAt": "2018-11-09T14:00:47.845Z"
}