{
  "contractName": "ZombieFeeding",
  "abi": [
    {
      "constant": true,
      "inputs": [
        {
          "name": "",
          "type": "uint256"
        }
      ],
      "name": "zombies",
      "outputs": [
        {
          "name": "name",
          "type": "string"
        },
        {
          "name": "dna",
          "type": "uint256"
        }
      ],
      "payable": false,
      "stateMutability": "view",
      "type": "function"
    },
    {
      "constant": true,
      "inputs": [
        {
          "name": "",
          "type": "uint256"
        }
      ],
      "name": "zombieToOwner",
      "outputs": [
        {
          "name": "",
          "type": "address"
        }
      ],
      "payable": false,
      "stateMutability": "view",
      "type": "function"
    },
    {
      "constant": false,
      "inputs": [
        {
          "name": "_name",
          "type": "string"
        }
      ],
      "name": "createRandomZombie",
      "outputs": [],
      "payable": false,
      "stateMutability": "nonpayable",
      "type": "function"
    },
    {
      "anonymous": false,
      "inputs": [
        {
          "indexed": false,
          "name": "zombieId",
          "type": "uint256"
        },
        {
          "indexed": false,
          "name": "name",
          "type": "string"
        },
        {
          "indexed": false,
          "name": "dna",
          "type": "uint256"
        }
      ],
      "name": "NewZombie",
      "type": "event"
    },
    {
      "constant": false,
      "inputs": [
        {
          "name": "_zombieId",
          "type": "uint256"
        },
        {
          "name": "_targetDna",
          "type": "uint256"
        },
        {
          "name": "_species",
          "type": "string"
        }
      ],
      "name": "feedAndMultiply",
      "outputs": [],
      "payable": false,
      "stateMutability": "nonpayable",
      "type": "function"
    },
    {
      "constant": false,
      "inputs": [
        {
          "name": "_zombieId",
          "type": "uint256"
        },
        {
          "name": "_kittyId",
          "type": "uint256"
        }
      ],
      "name": "feedOnKitty",
      "outputs": [],
      "payable": false,
      "stateMutability": "nonpayable",
      "type": "function"
    }
  ],
  "bytecode": "0x60806040526010600055662386f26fc1000060015560058054600160a060020a03199081167306012c8cf97bead5deae237070f9587f8e7a266d179182905560068054909116600160a060020a039290921691909117905534801561006357600080fd5b5061095e806100736000396000f30060806040526004361061006c5763ffffffff7c010000000000000000000000000000000000000000000000000000000060003504166317a7f4cc81146100715780632052465e1461008e578063528b7b8f146101255780636b0bfc80146101665780637bff0a01146101c6575b600080fd5b34801561007d57600080fd5b5061008c60043560243561021f565b005b34801561009a57600080fd5b506100a660043561030d565b6040518080602001838152602001828103825284818151815260200191508051906020019080838360005b838110156100e95781810151838201526020016100d1565b50505050905090810190601f1680156101165780820380516001836020036101000a031916815260200191505b50935050505060405180910390f35b34801561013157600080fd5b5061013d6004356103c1565b6040805173ffffffffffffffffffffffffffffffffffffffff9092168252519081900360200190f35b34801561017257600080fd5b50604080516020600460443581810135601f810184900484028501840190955284845261008c9482359460248035953695946064949201919081908401838280828437509497506103e99650505050505050565b3480156101d257600080fd5b506040805160206004803580820135601f810184900484028501840190955284845261008c9436949293602493928401919081908401838280828437509497506106129650505050505050565b600654604080517fe98b7f4d00000000000000000000000000000000000000000000000000000000815260048101849052905160009273ffffffffffffffffffffffffffffffffffffffff169163e98b7f4d9160248083019261014092919082900301818787803b15801561029357600080fd5b505af11580156102a7573d6000803e3d6000fd5b505050506040513d6101408110156102be57600080fd5b50610120015160408051808201909152600581527f6b69747479000000000000000000000000000000000000000000000000000000602082015290915061030890849083906103e9565b505050565b600280548290811061031b57fe5b60009182526020918290206002918202018054604080516001831615610100026000190190921693909304601f8101859004850282018501909352828152909350918391908301828280156103b15780601f10610386576101008083540402835291602001916103b1565b820191906000526020600020905b81548152906001019060200180831161039457829003601f168201915b5050505050908060010154905082565b60036020526000908152604090205473ffffffffffffffffffffffffffffffffffffffff1681565b600083815260036020526040812054819073ffffffffffffffffffffffffffffffffffffffff16331461041b57600080fd5b600280548690811061042957fe5b906000526020600020906002020191506001548481151561044657fe5b06935060028483600101540181151561045b57fe5b04905060405160200180807f6b6974747900000000000000000000000000000000000000000000000000000081525060050190506040516020818303038152906040526040518082805190602001908083835b602083106104cd5780518252601f1990920191602091820191016104ae565b51815160209384036101000a60001901801990921691161790526040519190930181900381208851909550889450908301928392508401908083835b602083106105285780518252601f199092019160209182019101610509565b6001836020036101000a0380198251168184511680821785525050505050509050019150506040516020818303038152906040526040518082805190602001908083835b6020831061058b5780518252601f19909201916020918201910161056c565b6001836020036101000a03801982511681845116808217855250505050505090500191505060405180910390206000191614156105cc576064810690036063015b61060b6040805190810160405280600681526020017f4e6f4e616d6500000000000000000000000000000000000000000000000000008152508261064b565b5050505050565b336000908152600460205260408120541561062c57600080fd5b610635826107b6565b9050606481069003610647828261064b565b5050565b60408051808201909152828152602080820183905260028054600181810180845560008481528651805191979396929593949093027f405787fa12a823e0f2b7631cc41b3ba8828b3321ca811111fa75cd3aa3bb5ace01926106b1928492910190610897565b50602091820151600191820155929091036000818152600383526040808220805473ffffffffffffffffffffffffffffffffffffffff19163390811790915582526004845280822080549095019094558351828152938401869052606084840181815288519186019190915287519295507f88f026aacbbecc90c18411df4b1185fd8d9be2470f1962f192bf84a27d0704b7948694899489949293926080850192870191908190849084905b8381101561077557818101518382015260200161075d565b50505050905090810190601f1680156107a25780820380516001836020036101000a031916815260200191505b5094505050505060405180910390a1505050565b600080826040516020018082805190602001908083835b602083106107ec5780518252601f1990920191602091820191016107cd565b6001836020036101000a0380198251168184511680821785525050505050509050019150506040516020818303038152906040526040518082805190602001908083835b6020831061084f5780518252601f199092019160209182019101610830565b6001836020036101000a03801982511681845116808217855250505050505090500191505060405180910390206001900490506001548181151561088f57fe5b069392505050565b828054600181600116156101000203166002900490600052602060002090601f016020900481019282601f106108d857805160ff1916838001178555610905565b82800160010185558215610905579182015b828111156109055782518255916020019190600101906108ea565b50610911929150610915565b5090565b61092f91905b80821115610911576000815560010161091b565b905600a165627a7a723058204e534cb7193892f36838578750acedbd7fe5a43ecae075690b0f569136af956f0029",
  "source": "pragma solidity ^0.4.19;\r\n\r\nimport \"./zombiefactory.sol\";\r\n\r\ncontract KittyInterface {\r\n  function getKitty(uint256 _id) external view returns (\r\n    bool isGestating,\r\n    bool isReady,\r\n    uint256 cooldownIndex,\r\n    uint256 nextActionAt,\r\n    uint256 siringWithId,\r\n    uint256 birthTime,\r\n    uint256 matronId,\r\n    uint256 sireId,\r\n    uint256 generation,\r\n    uint256 genes\r\n  );\r\n}\r\n\r\ncontract ZombieFeeding is ZombieFactory {\r\n\r\n  address ckAddress = 0x06012c8cf97BEaD5deAe237070F9587f8E7A266d;\r\n  KittyInterface kittyContract = KittyInterface(ckAddress);\r\n\r\n  function feedAndMultiply(uint _zombieId, uint _targetDna, string _species) public {\r\n    require(msg.sender == zombieToOwner[_zombieId]);\r\n    Zombie storage myZombie = zombies[_zombieId];\r\n    _targetDna = _targetDna % dnaModulus;\r\n    uint newDna = (myZombie.dna + _targetDna) / 2;\r\n    if (keccak256(abi.encodePacked(_species)) == keccak256(abi.encodePacked(\"kitty\"))) {\r\n      newDna = newDna - newDna % 100 + 99;\r\n    }\r\n    _createZombie(\"NoName\", newDna);\r\n  }\r\n\r\n  function feedOnKitty(uint _zombieId, uint _kittyId) public {\r\n    uint kittyDna;\r\n    (,,,,,,,,,kittyDna) = kittyContract.getKitty(_kittyId);\r\n    feedAndMultiply(_zombieId, kittyDna, \"kitty\");\r\n  }\r\n\r\n}\r\n",
  "sourcePath": "C:\\Users\\Eth Coding\\documents\\github\\cryptozombiest1\\chapter 2\\contracts\\ZombieFeeding.sol",
  "compiler": {
    "name": "solc",
    "version": "0.4.24+commit.e67f0147.Emscripten.clang"
  },
  "schemaVersion": "2.0.1",
  "updatedAt": "2018-11-05T14:41:33.011Z"
}