{
  "contractName": "ZombieFactory",
  "abi": [
    {
      "constant": true,
      "inputs": [
        {
          "name": "",
          "type": "uint256"
        }
      ],
      "name": "zombies",
      "outputs": [
        {
          "name": "name",
          "type": "string"
        },
        {
          "name": "dna",
          "type": "uint256"
        }
      ],
      "payable": false,
      "stateMutability": "view",
      "type": "function"
    },
    {
      "anonymous": false,
      "inputs": [
        {
          "indexed": false,
          "name": "zombieId",
          "type": "uint256"
        },
        {
          "indexed": false,
          "name": "name",
          "type": "string"
        },
        {
          "indexed": false,
          "name": "dna",
          "type": "uint256"
        }
      ],
      "name": "NewZombie",
      "type": "event"
    },
    {
      "constant": false,
      "inputs": [
        {
          "name": "_name",
          "type": "string"
        }
      ],
      "name": "createRandomZombie",
      "outputs": [],
      "payable": false,
      "stateMutability": "nonpayable",
      "type": "function"
    }
  ],
  "bytecode": "0x60806040526010600055662386f26fc1000060015534801561002057600080fd5b5061055d806100306000396000f30060806040526004361061004b5763ffffffff7c01000000000000000000000000000000000000000000000000000000006000350416632052465e81146100505780637bff0a01146100e7575b600080fd5b34801561005c57600080fd5b50610068600435610142565b6040518080602001838152602001828103825284818151815260200191508051906020019080838360005b838110156100ab578181015183820152602001610093565b50505050905090810190601f1680156100d85780820380516001836020036101000a031916815260200191505b50935050505060405180910390f35b3480156100f357600080fd5b506040805160206004803580820135601f81018490048402850184019095528484526101409436949293602493928401919081908401838280828437509497506101f69650505050505050565b005b600280548290811061015057fe5b60009182526020918290206002918202018054604080516001831615610100026000190190921693909304601f8101859004850282018501909352828152909350918391908301828280156101e65780601f106101bb576101008083540402835291602001916101e6565b820191906000526020600020905b8154815290600101906020018083116101c957829003601f168201915b5050505050908060010154905082565b600061020182610211565b905061020d8282610372565b5050565b80516000908160018211806102265750600f82115b151561029357604080517f08c379a000000000000000000000000000000000000000000000000000000000815260206004820152600f60248201527f4e616d6520626164206c656e6774680000000000000000000000000000000000604482015290519081900360640190fd5b836040516020018082805190602001908083835b602083106102c65780518252601f1990920191602091820191016102a7565b6001836020036101000a0380198251168184511680821785525050505050509050019150506040516020818303038152906040526040518082805190602001908083835b602083106103295780518252601f19909201916020918201910161030a565b6001836020036101000a03801982511681845116808217855250505050505090500191505060405180910390206001900490506001548181151561036957fe5b06949350505050565b60408051808201909152828152602080820183905260028054600181810180845560008481528651805191979396929593949093027f405787fa12a823e0f2b7631cc41b3ba8828b3321ca811111fa75cd3aa3bb5ace01926103d8928492910190610496565b506020820151816001015550500390507f88f026aacbbecc90c18411df4b1185fd8d9be2470f1962f192bf84a27d0704b78184846040518084815260200180602001838152602001828103825284818151815260200191508051906020019080838360005b8381101561045557818101518382015260200161043d565b50505050905090810190601f1680156104825780820380516001836020036101000a031916815260200191505b5094505050505060405180910390a1505050565b828054600181600116156101000203166002900490600052602060002090601f016020900481019282601f106104d757805160ff1916838001178555610504565b82800160010185558215610504579182015b828111156105045782518255916020019190600101906104e9565b50610510929150610514565b5090565b61052e91905b80821115610510576000815560010161051a565b905600a165627a7a723058203b920a4f859ef88bd30e8ab674f850f15e4b410d9e90862c93436437d98ce1510029",
  "source": "pragma solidity ^0.4.19;\r\n/// @title CryptoZombies Chapter 1\r\n/// @author H4XF13LD MORRIS 💯💯😎💯💯 (documentation by Rex Hygate)\r\n// @Github https://github.com/SecurEth/CryptoZombiesT1/Chapter1\r\n// @SDD \"./doc./System Description Document.md\"\r\n// @ARCH ./doc/Crpto...\r\ncontract ZombieFactory {\r\n\r\n    event NewZombie(uint zombieId, string name, uint dna);\r\n\r\n    uint dnaDigits = 16;\r\n    uint dnaModulus = 10 ** dnaDigits;\r\n\r\n    struct Zombie {\r\n        string name;\r\n        uint dna;\r\n    }\r\n\r\n    Zombie[] public zombies;\r\n// req C1_1 Push the Zombie attributes in the zombies struct\r\n// req C1_2 Emit the Zombie id, name and dna\r\n    function _createZombie(string _name, uint _dna) private {\r\n        uint id = zombies.push(Zombie(_name, _dna)) - 1;\r\n        emit NewZombie(id, _name, _dna);\r\n    } \r\n// @req C1_3 Generate a pseudo random number from a string which is returned as the dna\r\n// @req C1_4 Throw an error if string length 1 char or less\r\n// @req C1_5 Create id which represents the index of the Zombie in the struct on blockchain\r\n    function _generateRandomDna(string _str) private view returns (uint) {\r\n        uint len = bytes(_str).length;\r\n        require( (len> 1 || len > 15), \"Name bad length\");  // New code added for tests\r\n        uint rand = uint(keccak256(abi.encodePacked(_str)));\r\n        return rand % dnaModulus;\r\n    }\r\n\r\n// @req C1_6 Make Zombie in struct and emit id, name and dna\r\n    function createRandomZombie(string _name) public {\r\n        uint randDna = _generateRandomDna(_name);\r\n        _createZombie(_name, randDna);\r\n    }\r\n\r\n}\r\n\r\n",
  "sourcePath": "C:\\Users\\Eth Coding\\Documents\\Github\\CryptoZombiesT1\\Chapter 1\\contracts\\ZombieFactory.sol",
  "compiler": {
    "name": "solc",
    "version": "0.4.24+commit.e67f0147.Emscripten.clang"
  },
  "schemaVersion": "2.0.1",
  "updatedAt": "2018-11-11T15:40:40.228Z"
}