{
  "contractName": "ZombieFactory",
  "abi": [
    {
      "constant": true,
      "inputs": [
        {
          "name": "",
          "type": "uint256"
        }
      ],
      "name": "zombies",
      "outputs": [
        {
          "name": "name",
          "type": "string"
        },
        {
          "name": "dna",
          "type": "uint256"
        }
      ],
      "payable": false,
      "stateMutability": "view",
      "type": "function"
    },
    {
      "anonymous": false,
      "inputs": [
        {
          "indexed": false,
          "name": "zombieId",
          "type": "uint256"
        },
        {
          "indexed": false,
          "name": "name",
          "type": "string"
        },
        {
          "indexed": false,
          "name": "dna",
          "type": "uint256"
        }
      ],
      "name": "NewZombie",
      "type": "event"
    },
    {
      "constant": false,
      "inputs": [
        {
          "name": "_name",
          "type": "string"
        }
      ],
      "name": "createRandomZombie",
      "outputs": [],
      "payable": false,
      "stateMutability": "nonpayable",
      "type": "function"
    }
  ],
  "bytecode": "0x60806040526010600055662386f26fc1000060015534801561002057600080fd5b5061054a806100306000396000f30060806040526004361061004b5763ffffffff7c01000000000000000000000000000000000000000000000000000000006000350416632052465e81146100505780637bff0a01146100e7575b600080fd5b34801561005c57600080fd5b50610068600435610142565b6040518080602001838152602001828103825284818151815260200191508051906020019080838360005b838110156100ab578181015183820152602001610093565b50505050905090810190601f1680156100d85780820380516001836020036101000a031916815260200191505b50935050505060405180910390f35b3480156100f357600080fd5b506040805160206004803580820135601f81018490048402850184019095528484526101409436949293602493928401919081908401838280828437509497506101f69650505050505050565b005b600280548290811061015057fe5b60009182526020918290206002918202018054604080516001831615610100026000190190921693909304601f8101859004850282018501909352828152909350918391908301828280156101e65780601f106101bb576101008083540402835291602001916101e6565b820191906000526020600020905b8154815290600101906020018083116101c957829003601f168201915b5050505050908060010154905082565b600061020182610211565b905061020d82826102f2565b5050565b600080826040516020018082805190602001908083835b602083106102475780518252601f199092019160209182019101610228565b6001836020036101000a0380198251168184511680821785525050505050509050019150506040516020818303038152906040526040518082805190602001908083835b602083106102aa5780518252601f19909201916020918201910161028b565b6001836020036101000a0380198251168184511680821785525050505050509050019150506040518091039020600190049050600154818115156102ea57fe5b069392505050565b6040805180820190915282815260208082018390526002805460018101808355600083815285518051919692959294939093027f405787fa12a823e0f2b7631cc41b3ba8828b3321ca811111fa75cd3aa3bb5ace0192610356928492910190610483565b50602091820151600191820155604080518082019091528681528083018690526002805480840180835560008390528351805195975090959394919092027f405787fa12a823e0f2b7631cc41b3ba8828b3321ca811111fa75cd3aa3bb5ace01926103c5928492910190610483565b506020820151816001015550500390507f88f026aacbbecc90c18411df4b1185fd8d9be2470f1962f192bf84a27d0704b78184846040518084815260200180602001838152602001828103825284818151815260200191508051906020019080838360005b8381101561044257818101518382015260200161042a565b50505050905090810190601f16801561046f5780820380516001836020036101000a031916815260200191505b5094505050505060405180910390a1505050565b828054600181600116156101000203166002900490600052602060002090601f016020900481019282601f106104c457805160ff19168380011785556104f1565b828001600101855582156104f1579182015b828111156104f15782518255916020019190600101906104d6565b506104fd929150610501565b5090565b61051b91905b808211156104fd5760008155600101610507565b905600a165627a7a7230582072785abf9adc8d7dd469ff1c68553845a1981031b40ecc9caaa09aba6e2d7d680029",
  "source": "pragma solidity ^0.4.19;\r\n/// @title CryptoZombies Chapter 1\r\n/// @author H4XF13LD MORRIS 💯💯😎💯💯 (documentation by Rex Hygate)\r\n// @Github http:\\\\\r\n// @SDD ./doc./Crypto\r\n// @ARCH ./doc/Crpto...\r\ncontract ZombieFactory {\r\n\r\n    event NewZombie(uint zombieId, string name, uint dna);\r\n\r\n    uint dnaDigits = 16;\r\n    uint dnaModulus = 10 ** dnaDigits;\r\n\r\n    struct Zombie {\r\n        string name;\r\n        uint dna;\r\n    }\r\n\r\n    Zombie[] public zombies;\r\n// req # Push the Zombie attributes in the zombies struct\r\n// req # Emit the Zombie id, name and dna\r\n    function _createZombie(string _name, uint _dna) private {\r\n        zombies.push(Zombie(_name, _dna));\r\n        uint id = zombies.push(Zombie(_name, _dna)) - 1;\r\n        emit NewZombie(id, _name, _dna);\r\n        // and fire it here\r\n    } \r\n// @req # Generate a pseudo random number from a string which is returned as the dna\r\n// @req # Throw an error if string length 1 char or less\r\n// @req # Create id which represents the index of the Zombie in the struct on blockchain\r\n    function _generateRandomDna(string _str) private view returns (uint) {\r\n//        require(byte(_str).length > 1, \"Name too short\");  // New code added for tests\r\n        uint rand = uint(keccak256(abi.encodePacked(_str)));\r\n        return rand % dnaModulus;\r\n    }\r\n\r\n// @req # Make Zombie in struct and emit id, name and dna\r\n    function createRandomZombie(string _name) public {\r\n        uint randDna = _generateRandomDna(_name);\r\n        _createZombie(_name, randDna);\r\n    }\r\n\r\n}\r\n",
  "sourcePath": "C:\\Users\\Eth Coding\\documents\\github\\cryptozombiest1\\chapter 1\\contracts\\ZombieFactory.sol",
  "compiler": {
    "name": "solc",
    "version": "0.4.24+commit.e67f0147.Emscripten.clang"
  },
  "schemaVersion": "2.0.1",
  "updatedAt": "2018-11-05T14:00:54.757Z"
}